{
  "contracts/registries/SitusMetadataStore.sol": {
    "SitusMetadataStore": {
      "abi": [
        {
          "inputs": [],
          "name": "NotTLDOwner",
          "type": "error"
        },
        {
          "anonymous": false,
          "inputs": [
            {
              "indexed": true,
              "internalType": "address",
              "name": "user",
              "type": "address"
            },
            {
              "indexed": false,
              "internalType": "string",
              "name": "brand",
              "type": "string"
            }
          ],
          "name": "BrandChanged",
          "type": "event"
        },
        {
          "anonymous": false,
          "inputs": [
            {
              "indexed": true,
              "internalType": "address",
              "name": "user",
              "type": "address"
            },
            {
              "indexed": false,
              "internalType": "string",
              "name": "description",
              "type": "string"
            }
          ],
          "name": "DescriptionChanged",
          "type": "event"
        },
        {
          "inputs": [
            {
              "internalType": "address",
              "name": "",
              "type": "address"
            }
          ],
          "name": "brands",
          "outputs": [
            {
              "internalType": "string",
              "name": "",
              "type": "string"
            }
          ],
          "stateMutability": "view",
          "type": "function"
        },
        {
          "inputs": [
            {
              "internalType": "address",
              "name": "_tldAddress",
              "type": "address"
            },
            {
              "internalType": "string",
              "name": "_brand",
              "type": "string"
            }
          ],
          "name": "changeBrand",
          "outputs": [],
          "stateMutability": "nonpayable",
          "type": "function"
        },
        {
          "inputs": [
            {
              "internalType": "address",
              "name": "_tldAddress",
              "type": "address"
            },
            {
              "internalType": "string",
              "name": "_description",
              "type": "string"
            }
          ],
          "name": "changeDescription",
          "outputs": [],
          "stateMutability": "nonpayable",
          "type": "function"
        },
        {
          "inputs": [
            {
              "internalType": "address",
              "name": "",
              "type": "address"
            }
          ],
          "name": "descriptions",
          "outputs": [
            {
              "internalType": "string",
              "name": "",
              "type": "string"
            }
          ],
          "stateMutability": "view",
          "type": "function"
        },
        {
          "inputs": [
            {
              "internalType": "address",
              "name": "_tldAddress",
              "type": "address"
            },
            {
              "internalType": "uint256",
              "name": "_tokenId",
              "type": "uint256"
            }
          ],
          "name": "getAnimationUrl",
          "outputs": [
            {
              "internalType": "string",
              "name": "",
              "type": "string"
            }
          ],
          "stateMutability": "view",
          "type": "function"
        },
        {
          "inputs": [
            {
              "internalType": "address",
              "name": "_tldAddress",
              "type": "address"
            },
            {
              "internalType": "string",
              "name": "_domainName",
              "type": "string"
            },
            {
              "internalType": "string",
              "name": "_tld",
              "type": "string"
            },
            {
              "internalType": "uint256",
              "name": "_tokenId",
              "type": "uint256"
            }
          ],
          "name": "getMetadata",
          "outputs": [
            {
              "internalType": "string",
              "name": "",
              "type": "string"
            }
          ],
          "stateMutability": "view",
          "type": "function"
        },
        {
          "inputs": [
            {
              "internalType": "address",
              "name": "_tldAddress",
              "type": "address"
            }
          ],
          "name": "getTldOwner",
          "outputs": [
            {
              "internalType": "address",
              "name": "",
              "type": "address"
            }
          ],
          "stateMutability": "view",
          "type": "function"
        }
      ],
      "evm": {
        "bytecode": {
          "linkReferences": {},
          "object": "608060405234801561001057600080fd5b5061159c806100206000396000f3fe608060405234801561001057600080fd5b506004361061007d5760003560e01c80636d4a238c1161005b5780636d4a238c146100e757806389cff984146100fa578063a330a71d1461010d578063a4002a051461012057600080fd5b80630ddec7cc146100825780631ed6f423146100b25780635b7fd9b5146100c7575b600080fd5b610095610090366004610af2565b610133565b6040516001600160a01b0390911681526020015b60405180910390f35b6100c56100c0366004610b58565b6101a2565b005b6100da6100d5366004610af2565b610248565b6040516100a99190610bd1565b6100da6100f5366004610c04565b6102e2565b6100da610108366004610c30565b610334565b6100da61011b366004610af2565b6104cf565b6100c561012e366004610b58565b6104e8565b600080829050806001600160a01b0316638da5cb5b6040518163ffffffff1660e01b8152600401602060405180830381865afa158015610177573d6000803e3d6000fd5b505050506040513d601f19601f8201168201806040525081019061019b9190610cbb565b9392505050565b6101ab83610133565b6001600160a01b0316336001600160a01b0316146101dc576040516341dd82b960e01b815260040160405180910390fd5b6001600160a01b03831660009081526020819052604090206101ff828483610d79565b50336001600160a01b03167fd346e71ae29ac7c4fb35e65e1dae255cfebe3e31a8849eb176a39776ca819bc9838360405161023b929190610e3a565b60405180910390a2505050565b6001602052600090815260409020805461026190610cee565b80601f016020809104026020016040519081016040528092919081815260200182805461028d90610cee565b80156102da5780601f106102af576101008083540402835291602001916102da565b820191906000526020600020905b8154815290600101906020018083116102bd57829003601f168201915b505050505081565b60606102f8836001600160a01b03166014610581565b61030183610721565b61030a46610721565b60405160200161031c93929190610e85565b60405160208183030381529060405290505b92915050565b606060008686868660405160200161034f9493929190610f16565b60408051601f198184030181526020601f8a0181900481028401810190925288835292506000916103a49161039f91908b908b908190840183828082843760009201919091525061082a92505050565b610857565b905060006103b28a866102e2565b3360009081526020819052604090209091506104a19084906103d385610721565b33600090815260016020526040902080548691610479918a91906103f690610cee565b80601f016020809104026020016040519081016040528092919081815260200182805461042290610cee565b801561046f5780601f106104445761010080835404028352916020019161046f565b820191906000526020600020905b81548152906001019060200180831161045257829003601f168201915b5050505050610930565b60405160200161048d959493929190610f38565b604051602081830303815290604052610973565b6040516020016104b19190611102565b60405160208183030381529060405293505050509695505050505050565b6000602081905290815260409020805461026190610cee565b6104f183610133565b6001600160a01b0316336001600160a01b031614610522576040516341dd82b960e01b815260040160405180910390fd5b6001600160a01b0383166000908152600160205260409020610545828483610d79565b50336001600160a01b03167fe516d564289861f50fd9c4b64e84b7f41ebf363d8dd8ae8ecf8970063a39398a838360405161023b929190610e3a565b6060600061059083600261115d565b61059b906002611174565b67ffffffffffffffff8111156105b3576105b3610cd8565b6040519080825280601f01601f1916602001820160405280156105dd576020820181803683370190505b509050600360fc1b816000815181106105f8576105f8611187565b60200101906001600160f81b031916908160001a905350600f60fb1b8160018151811061062757610627611187565b60200101906001600160f81b031916908160001a905350600061064b84600261115d565b610656906001611174565b90505b60018111156106ce576f181899199a1a9b1b9c1cb0b131b232b360811b85600f166010811061068a5761068a611187565b1a60f81b8282815181106106a0576106a0611187565b60200101906001600160f81b031916908160001a90535060049490941c936106c78161119d565b9050610659565b50831561019b5760405162461bcd60e51b815260206004820181905260248201527f537472696e67733a20686578206c656e67746820696e73756666696369656e74604482015260640160405180910390fd5b6060816000036107485750506040805180820190915260018152600360fc1b602082015290565b8160005b8115610772578061075c816111b4565b915061076b9050600a836111e3565b915061074c565b60008167ffffffffffffffff81111561078d5761078d610cd8565b6040519080825280601f01601f1916602001820160405280156107b7576020820181803683370190505b5090505b8415610822576107cc6001836111f7565b91506107d9600a8661120a565b6107e4906030611174565b60f81b8183815181106107f9576107f9611187565b60200101906001600160f81b031916908160001a90535061081b600a866111e3565b94506107bb565b949350505050565b60408051808201825260008082526020918201528151808301909252825182529182019181019190915290565b600080601f836020015161086b91906111f7565b835190915060009061087d9083611174565b9050600092505b8082101561092957815160ff1660808110156108ac576108a5600184611174565b9250610916565b60e08160ff1610156108c3576108a5600284611174565b60f08160ff1610156108da576108a5600384611174565b60f88160ff1610156108f1576108a5600484611174565b60fc8160ff161015610908576108a5600584611174565b610913600684611174565b92505b5082610921816111b4565b935050610884565b5050919050565b606060006109488460405160200161048d919061121e565b90508060405160200161095b91906114e1565b60405160208183030381529060405291505092915050565b6060815160000361099257505060408051602081019091526000815290565b600060405180606001604052806040815260200161152760409139905060006003845160026109c19190611174565b6109cb91906111e3565b6109d690600461115d565b905060006109e5826020611174565b67ffffffffffffffff8111156109fd576109fd610cd8565b6040519080825280601f01601f191660200182016040528015610a27576020820181803683370190505b509050818152600183018586518101602084015b81831015610a955760039283018051603f601282901c811687015160f890811b8552600c83901c8216880151811b6001860152600683901c8216880151811b60028601529116860151901b93820193909352600401610a3b565b600389510660018114610aaf5760028114610ac057610acc565b613d3d60f01b600119830152610acc565b603d60f81b6000198301525b509398975050505050505050565b6001600160a01b0381168114610aef57600080fd5b50565b600060208284031215610b0457600080fd5b813561019b81610ada565b60008083601f840112610b2157600080fd5b50813567ffffffffffffffff811115610b3957600080fd5b602083019150836020828501011115610b5157600080fd5b9250929050565b600080600060408486031215610b6d57600080fd5b8335610b7881610ada565b9250602084013567ffffffffffffffff811115610b9457600080fd5b610ba086828701610b0f565b9497909650939450505050565b60005b83811015610bc8578181015183820152602001610bb0565b50506000910152565b6020815260008251806020840152610bf0816040850160208701610bad565b601f01601f19169190910160400192915050565b60008060408385031215610c1757600080fd5b8235610c2281610ada565b946020939093013593505050565b60008060008060008060808789031215610c4957600080fd5b8635610c5481610ada565b9550602087013567ffffffffffffffff80821115610c7157600080fd5b610c7d8a838b01610b0f565b90975095506040890135915080821115610c9657600080fd5b50610ca389828a01610b0f565b979a9699509497949695606090950135949350505050565b600060208284031215610ccd57600080fd5b815161019b81610ada565b634e487b7160e01b600052604160045260246000fd5b600181811c90821680610d0257607f821691505b602082108103610d2257634e487b7160e01b600052602260045260246000fd5b50919050565b601f821115610d74576000816000526020600020601f850160051c81016020861015610d515750805b601f850160051c820191505b81811015610d7057828155600101610d5d565b5050505b505050565b67ffffffffffffffff831115610d9157610d91610cd8565b610da583610d9f8354610cee565b83610d28565b6000601f841160018114610dd95760008515610dc15750838201355b600019600387901b1c1916600186901b178355610e33565b600083815260209020601f19861690835b82811015610e0a5786850135825560209485019460019092019101610dea565b5086821015610e275760001960f88860031b161c19848701351681555b505060018560011b0183555b5050505050565b60208152816020820152818360408301376000818301604090810191909152601f909201601f19160101919050565b60008151610e7b818560208601610bad565b9290920192915050565b7f68747470733a2f2f696672616d652d746f6b656e626f756e642e76657263656c8152642e6170702f60d81b602082015260008451610ecb816025850160208901610bad565b8083019050602f60f81b8060258301528551610eee816026850160208a01610bad565b60269201918201528351610f09816027840160208801610bad565b0160270195945050505050565b8385823760008482016000815283858237600093019283525090949350505050565b693d913730b6b2911d101160b11b81528551600090610f5e81600a850160208b01610bad565b6201116160ed1b600a918401918201526f113232b9b1b934b83a34b7b7111d101160811b600d8201528654600090610f9581610cee565b60018281168015610fad5760018114610fc857610ffc565b60ff198416601d870152601d83151584028701019450610ffc565b8b600052602060002060005b84811015610ff1578154888201601d015290830190602001610fd4565b5050601d8387010194505b505050506110f56110e76110e16110cb6110bc6110b661109861108761108161104c6110318b6201116160ed1b815260030190565b6e2261747472696275746573223a205b60881b8152600f0190565b7f7b2274726169745f74797065223a20226c656e677468222c202276616c7565228152621d101160e91b602082015260230190565b8f610e69565b640113eae96160dd1b815260050190565b711130b734b6b0ba34b7b72fbab936111d101160711b815260120190565b8b610e69565b6201116160ed1b815260030190565b691134b6b0b3b2911d101160b11b8152600a0190565b87610e69565b61227d60f01b815260020190565b9998505050505050505050565b7f646174613a6170706c69636174696f6e2f6a736f6e3b6261736536342c00000081526000825161113a81601d850160208701610bad565b91909101601d0192915050565b634e487b7160e01b600052601160045260246000fd5b808202811582820484141761032e5761032e611147565b8082018082111561032e5761032e611147565b634e487b7160e01b600052603260045260246000fd5b6000816111ac576111ac611147565b506000190190565b6000600182016111c6576111c6611147565b5060010190565b634e487b7160e01b600052601260045260246000fd5b6000826111f2576111f26111cd565b500490565b8181038181111561032e5761032e611147565b600082611219576112196111cd565b500690565b7f3c73766720786d6c6e733d22687474703a2f2f7777772e77332e6f72672f323081527f30302f737667222076696577426f783d2230203020353030203530302220776960208201527f6474683d2235303022206865696768743d22353030223e00000000000000000060408201527f3c646566733e3c6c696e6561724772616469656e742069643d2267726164222060578201527f78313d223025222079313d223025222078323d2231303025222079323d223025607782015261111f60f11b60978201527f3c73746f70206f66667365743d22302522207374796c653d2273746f702d636f60998201527f6c6f723a626c61636b3b73746f702d6f7061636974793a3122202f3e0000000060b98201527f3c73746f70206f66667365743d223130302522207374796c653d2273746f702d60d58201527f636f6c6f723a7267622834332c2034332c203433293b73746f702d6f7061636960f58201527f74793a3122202f3e3c2f6c696e6561724772616469656e743e3c2f646566733e6101158201527f3c7265637420783d22302220793d2230222077696474683d22353030222068656101358201527f696768743d22353030222066696c6c3d2275726c28236772616429222f3e00006101558201527f3c7465787420783d223530252220793d223530252220646f6d696e616e742d626101738201527f6173656c696e653d226d6964646c65222066696c6c3d227768697465222074656101938201527f78742d616e63686f723d226d6964646c652220666f6e742d66616d696c793d226101b38201527f6d6f6e6f73706163652220666f6e742d73697a653d22323470782220666f6e746101d38201526e16bbb2b4b3b43a1e913137b632111f60891b6101f3820152600061019b6114cf6114bc610202850186610e69565b661e17ba32bc3a1f60c91b815260070190565b651e17b9bb339f60d11b815260060190565b7f646174613a696d6167652f7376672b786d6c3b6261736536342c00000000000081526000825161151981601a850160208701610bad565b91909101601a019291505056fe4142434445464748494a4b4c4d4e4f505152535455565758595a6162636465666768696a6b6c6d6e6f707172737475767778797a303132333435363738392b2fa2646970667358221220cd689ecbf5f5786189bb51099dff04a439ee9140f9c2eca08d4fd8e76929a18964736f6c63430008180033",
          "opcodes": "PUSH1 0x80 PUSH1 0x40 MSTORE CALLVALUE DUP1 ISZERO PUSH2 0x10 JUMPI PUSH1 0x0 DUP1 REVERT JUMPDEST POP PUSH2 0x159C DUP1 PUSH2 0x20 PUSH1 0x0 CODECOPY PUSH1 0x0 RETURN INVALID PUSH1 0x80 PUSH1 0x40 MSTORE CALLVALUE DUP1 ISZERO PUSH2 0x10 JUMPI PUSH1 0x0 DUP1 REVERT JUMPDEST POP PUSH1 0x4 CALLDATASIZE LT PUSH2 0x7D JUMPI PUSH1 0x0 CALLDATALOAD PUSH1 0xE0 SHR DUP1 PUSH4 0x6D4A238C GT PUSH2 0x5B JUMPI DUP1 PUSH4 0x6D4A238C EQ PUSH2 0xE7 JUMPI DUP1 PUSH4 0x89CFF984 EQ PUSH2 0xFA JUMPI DUP1 PUSH4 0xA330A71D EQ PUSH2 0x10D JUMPI DUP1 PUSH4 0xA4002A05 EQ PUSH2 0x120 JUMPI PUSH1 0x0 DUP1 REVERT JUMPDEST DUP1 PUSH4 0xDDEC7CC EQ PUSH2 0x82 JUMPI DUP1 PUSH4 0x1ED6F423 EQ PUSH2 0xB2 JUMPI DUP1 PUSH4 0x5B7FD9B5 EQ PUSH2 0xC7 JUMPI JUMPDEST PUSH1 0x0 DUP1 REVERT JUMPDEST PUSH2 0x95 PUSH2 0x90 CALLDATASIZE PUSH1 0x4 PUSH2 0xAF2 JUMP JUMPDEST PUSH2 0x133 JUMP JUMPDEST PUSH1 0x40 MLOAD PUSH1 0x1 PUSH1 0x1 PUSH1 0xA0 SHL SUB SWAP1 SWAP2 AND DUP2 MSTORE PUSH1 0x20 ADD JUMPDEST PUSH1 0x40 MLOAD DUP1 SWAP2 SUB SWAP1 RETURN JUMPDEST PUSH2 0xC5 PUSH2 0xC0 CALLDATASIZE PUSH1 0x4 PUSH2 0xB58 JUMP JUMPDEST PUSH2 0x1A2 JUMP JUMPDEST STOP JUMPDEST PUSH2 0xDA PUSH2 0xD5 CALLDATASIZE PUSH1 0x4 PUSH2 0xAF2 JUMP JUMPDEST PUSH2 0x248 JUMP JUMPDEST PUSH1 0x40 MLOAD PUSH2 0xA9 SWAP2 SWAP1 PUSH2 0xBD1 JUMP JUMPDEST PUSH2 0xDA PUSH2 0xF5 CALLDATASIZE PUSH1 0x4 PUSH2 0xC04 JUMP JUMPDEST PUSH2 0x2E2 JUMP JUMPDEST PUSH2 0xDA PUSH2 0x108 CALLDATASIZE PUSH1 0x4 PUSH2 0xC30 JUMP JUMPDEST PUSH2 0x334 JUMP JUMPDEST PUSH2 0xDA PUSH2 0x11B CALLDATASIZE PUSH1 0x4 PUSH2 0xAF2 JUMP JUMPDEST PUSH2 0x4CF JUMP JUMPDEST PUSH2 0xC5 PUSH2 0x12E CALLDATASIZE PUSH1 0x4 PUSH2 0xB58 JUMP JUMPDEST PUSH2 0x4E8 JUMP JUMPDEST PUSH1 0x0 DUP1 DUP3 SWAP1 POP DUP1 PUSH1 0x1 PUSH1 0x1 PUSH1 0xA0 SHL SUB AND PUSH4 0x8DA5CB5B PUSH1 0x40 MLOAD DUP2 PUSH4 0xFFFFFFFF AND PUSH1 0xE0 SHL DUP2 MSTORE PUSH1 0x4 ADD PUSH1 0x20 PUSH1 0x40 MLOAD DUP1 DUP4 SUB DUP2 DUP7 GAS STATICCALL ISZERO DUP1 ISZERO PUSH2 0x177 JUMPI RETURNDATASIZE PUSH1 0x0 DUP1 RETURNDATACOPY RETURNDATASIZE PUSH1 0x0 REVERT JUMPDEST POP POP POP POP PUSH1 0x40 MLOAD RETURNDATASIZE PUSH1 0x1F NOT PUSH1 0x1F DUP3 ADD AND DUP3 ADD DUP1 PUSH1 0x40 MSTORE POP DUP2 ADD SWAP1 PUSH2 0x19B SWAP2 SWAP1 PUSH2 0xCBB JUMP JUMPDEST SWAP4 SWAP3 POP POP POP JUMP JUMPDEST PUSH2 0x1AB DUP4 PUSH2 0x133 JUMP JUMPDEST PUSH1 0x1 PUSH1 0x1 PUSH1 0xA0 SHL SUB AND CALLER PUSH1 0x1 PUSH1 0x1 PUSH1 0xA0 SHL SUB AND EQ PUSH2 0x1DC JUMPI PUSH1 0x40 MLOAD PUSH4 0x41DD82B9 PUSH1 0xE0 SHL DUP2 MSTORE PUSH1 0x4 ADD PUSH1 0x40 MLOAD DUP1 SWAP2 SUB SWAP1 REVERT JUMPDEST PUSH1 0x1 PUSH1 0x1 PUSH1 0xA0 SHL SUB DUP4 AND PUSH1 0x0 SWAP1 DUP2 MSTORE PUSH1 0x20 DUP2 SWAP1 MSTORE PUSH1 0x40 SWAP1 KECCAK256 PUSH2 0x1FF DUP3 DUP5 DUP4 PUSH2 0xD79 JUMP JUMPDEST POP CALLER PUSH1 0x1 PUSH1 0x1 PUSH1 0xA0 SHL SUB AND PUSH32 0xD346E71AE29AC7C4FB35E65E1DAE255CFEBE3E31A8849EB176A39776CA819BC9 DUP4 DUP4 PUSH1 0x40 MLOAD PUSH2 0x23B SWAP3 SWAP2 SWAP1 PUSH2 0xE3A JUMP JUMPDEST PUSH1 0x40 MLOAD DUP1 SWAP2 SUB SWAP1 LOG2 POP POP POP JUMP JUMPDEST PUSH1 0x1 PUSH1 0x20 MSTORE PUSH1 0x0 SWAP1 DUP2 MSTORE PUSH1 0x40 SWAP1 KECCAK256 DUP1 SLOAD PUSH2 0x261 SWAP1 PUSH2 0xCEE JUMP JUMPDEST DUP1 PUSH1 0x1F ADD PUSH1 0x20 DUP1 SWAP2 DIV MUL PUSH1 0x20 ADD PUSH1 0x40 MLOAD SWAP1 DUP2 ADD PUSH1 0x40 MSTORE DUP1 SWAP3 SWAP2 SWAP1 DUP2 DUP2 MSTORE PUSH1 0x20 ADD DUP3 DUP1 SLOAD PUSH2 0x28D SWAP1 PUSH2 0xCEE JUMP JUMPDEST DUP1 ISZERO PUSH2 0x2DA JUMPI DUP1 PUSH1 0x1F LT PUSH2 0x2AF JUMPI PUSH2 0x100 DUP1 DUP4 SLOAD DIV MUL DUP4 MSTORE SWAP2 PUSH1 0x20 ADD SWAP2 PUSH2 0x2DA JUMP JUMPDEST DUP3 ADD SWAP2 SWAP1 PUSH1 0x0 MSTORE PUSH1 0x20 PUSH1 0x0 KECCAK256 SWAP1 JUMPDEST DUP2 SLOAD DUP2 MSTORE SWAP1 PUSH1 0x1 ADD SWAP1 PUSH1 0x20 ADD DUP1 DUP4 GT PUSH2 0x2BD JUMPI DUP3 SWAP1 SUB PUSH1 0x1F AND DUP3 ADD SWAP2 JUMPDEST POP POP POP POP POP DUP2 JUMP JUMPDEST PUSH1 0x60 PUSH2 0x2F8 DUP4 PUSH1 0x1 PUSH1 0x1 PUSH1 0xA0 SHL SUB AND PUSH1 0x14 PUSH2 0x581 JUMP JUMPDEST PUSH2 0x301 DUP4 PUSH2 0x721 JUMP JUMPDEST PUSH2 0x30A CHAINID PUSH2 0x721 JUMP JUMPDEST PUSH1 0x40 MLOAD PUSH1 0x20 ADD PUSH2 0x31C SWAP4 SWAP3 SWAP2 SWAP1 PUSH2 0xE85 JUMP JUMPDEST PUSH1 0x40 MLOAD PUSH1 0x20 DUP2 DUP4 SUB SUB DUP2 MSTORE SWAP1 PUSH1 0x40 MSTORE SWAP1 POP JUMPDEST SWAP3 SWAP2 POP POP JUMP JUMPDEST PUSH1 0x60 PUSH1 0x0 DUP7 DUP7 DUP7 DUP7 PUSH1 0x40 MLOAD PUSH1 0x20 ADD PUSH2 0x34F SWAP5 SWAP4 SWAP3 SWAP2 SWAP1 PUSH2 0xF16 JUMP JUMPDEST PUSH1 0x40 DUP1 MLOAD PUSH1 0x1F NOT DUP2 DUP5 SUB ADD DUP2 MSTORE PUSH1 0x20 PUSH1 0x1F DUP11 ADD DUP2 SWAP1 DIV DUP2 MUL DUP5 ADD DUP2 ADD SWAP1 SWAP3 MSTORE DUP9 DUP4 MSTORE SWAP3 POP PUSH1 0x0 SWAP2 PUSH2 0x3A4 SWAP2 PUSH2 0x39F SWAP2 SWAP1 DUP12 SWAP1 DUP12 SWAP1 DUP2 SWAP1 DUP5 ADD DUP4 DUP3 DUP1 DUP3 DUP5 CALLDATACOPY PUSH1 0x0 SWAP3 ADD SWAP2 SWAP1 SWAP2 MSTORE POP PUSH2 0x82A SWAP3 POP POP POP JUMP JUMPDEST PUSH2 0x857 JUMP JUMPDEST SWAP1 POP PUSH1 0x0 PUSH2 0x3B2 DUP11 DUP7 PUSH2 0x2E2 JUMP JUMPDEST CALLER PUSH1 0x0 SWAP1 DUP2 MSTORE PUSH1 0x20 DUP2 SWAP1 MSTORE PUSH1 0x40 SWAP1 KECCAK256 SWAP1 SWAP2 POP PUSH2 0x4A1 SWAP1 DUP5 SWAP1 PUSH2 0x3D3 DUP6 PUSH2 0x721 JUMP JUMPDEST CALLER PUSH1 0x0 SWAP1 DUP2 MSTORE PUSH1 0x1 PUSH1 0x20 MSTORE PUSH1 0x40 SWAP1 KECCAK256 DUP1 SLOAD DUP7 SWAP2 PUSH2 0x479 SWAP2 DUP11 SWAP2 SWAP1 PUSH2 0x3F6 SWAP1 PUSH2 0xCEE JUMP JUMPDEST DUP1 PUSH1 0x1F ADD PUSH1 0x20 DUP1 SWAP2 DIV MUL PUSH1 0x20 ADD PUSH1 0x40 MLOAD SWAP1 DUP2 ADD PUSH1 0x40 MSTORE DUP1 SWAP3 SWAP2 SWAP1 DUP2 DUP2 MSTORE PUSH1 0x20 ADD DUP3 DUP1 SLOAD PUSH2 0x422 SWAP1 PUSH2 0xCEE JUMP JUMPDEST DUP1 ISZERO PUSH2 0x46F JUMPI DUP1 PUSH1 0x1F LT PUSH2 0x444 JUMPI PUSH2 0x100 DUP1 DUP4 SLOAD DIV MUL DUP4 MSTORE SWAP2 PUSH1 0x20 ADD SWAP2 PUSH2 0x46F JUMP JUMPDEST DUP3 ADD SWAP2 SWAP1 PUSH1 0x0 MSTORE PUSH1 0x20 PUSH1 0x0 KECCAK256 SWAP1 JUMPDEST DUP2 SLOAD DUP2 MSTORE SWAP1 PUSH1 0x1 ADD SWAP1 PUSH1 0x20 ADD DUP1 DUP4 GT PUSH2 0x452 JUMPI DUP3 SWAP1 SUB PUSH1 0x1F AND DUP3 ADD SWAP2 JUMPDEST POP POP POP POP POP PUSH2 0x930 JUMP JUMPDEST PUSH1 0x40 MLOAD PUSH1 0x20 ADD PUSH2 0x48D SWAP6 SWAP5 SWAP4 SWAP3 SWAP2 SWAP1 PUSH2 0xF38 JUMP JUMPDEST PUSH1 0x40 MLOAD PUSH1 0x20 DUP2 DUP4 SUB SUB DUP2 MSTORE SWAP1 PUSH1 0x40 MSTORE PUSH2 0x973 JUMP JUMPDEST PUSH1 0x40 MLOAD PUSH1 0x20 ADD PUSH2 0x4B1 SWAP2 SWAP1 PUSH2 0x1102 JUMP JUMPDEST PUSH1 0x40 MLOAD PUSH1 0x20 DUP2 DUP4 SUB SUB DUP2 MSTORE SWAP1 PUSH1 0x40 MSTORE SWAP4 POP POP POP POP SWAP7 SWAP6 POP POP POP POP POP POP JUMP JUMPDEST PUSH1 0x0 PUSH1 0x20 DUP2 SWAP1 MSTORE SWAP1 DUP2 MSTORE PUSH1 0x40 SWAP1 KECCAK256 DUP1 SLOAD PUSH2 0x261 SWAP1 PUSH2 0xCEE JUMP JUMPDEST PUSH2 0x4F1 DUP4 PUSH2 0x133 JUMP JUMPDEST PUSH1 0x1 PUSH1 0x1 PUSH1 0xA0 SHL SUB AND CALLER PUSH1 0x1 PUSH1 0x1 PUSH1 0xA0 SHL SUB AND EQ PUSH2 0x522 JUMPI PUSH1 0x40 MLOAD PUSH4 0x41DD82B9 PUSH1 0xE0 SHL DUP2 MSTORE PUSH1 0x4 ADD PUSH1 0x40 MLOAD DUP1 SWAP2 SUB SWAP1 REVERT JUMPDEST PUSH1 0x1 PUSH1 0x1 PUSH1 0xA0 SHL SUB DUP4 AND PUSH1 0x0 SWAP1 DUP2 MSTORE PUSH1 0x1 PUSH1 0x20 MSTORE PUSH1 0x40 SWAP1 KECCAK256 PUSH2 0x545 DUP3 DUP5 DUP4 PUSH2 0xD79 JUMP JUMPDEST POP CALLER PUSH1 0x1 PUSH1 0x1 PUSH1 0xA0 SHL SUB AND PUSH32 0xE516D564289861F50FD9C4B64E84B7F41EBF363D8DD8AE8ECF8970063A39398A DUP4 DUP4 PUSH1 0x40 MLOAD PUSH2 0x23B SWAP3 SWAP2 SWAP1 PUSH2 0xE3A JUMP JUMPDEST PUSH1 0x60 PUSH1 0x0 PUSH2 0x590 DUP4 PUSH1 0x2 PUSH2 0x115D JUMP JUMPDEST PUSH2 0x59B SWAP1 PUSH1 0x2 PUSH2 0x1174 JUMP JUMPDEST PUSH8 0xFFFFFFFFFFFFFFFF DUP2 GT ISZERO PUSH2 0x5B3 JUMPI PUSH2 0x5B3 PUSH2 0xCD8 JUMP JUMPDEST PUSH1 0x40 MLOAD SWAP1 DUP1 DUP3 MSTORE DUP1 PUSH1 0x1F ADD PUSH1 0x1F NOT AND PUSH1 0x20 ADD DUP3 ADD PUSH1 0x40 MSTORE DUP1 ISZERO PUSH2 0x5DD JUMPI PUSH1 0x20 DUP3 ADD DUP2 DUP1 CALLDATASIZE DUP4 CALLDATACOPY ADD SWAP1 POP JUMPDEST POP SWAP1 POP PUSH1 0x3 PUSH1 0xFC SHL DUP2 PUSH1 0x0 DUP2 MLOAD DUP2 LT PUSH2 0x5F8 JUMPI PUSH2 0x5F8 PUSH2 0x1187 JUMP JUMPDEST PUSH1 0x20 ADD ADD SWAP1 PUSH1 0x1 PUSH1 0x1 PUSH1 0xF8 SHL SUB NOT AND SWAP1 DUP2 PUSH1 0x0 BYTE SWAP1 MSTORE8 POP PUSH1 0xF PUSH1 0xFB SHL DUP2 PUSH1 0x1 DUP2 MLOAD DUP2 LT PUSH2 0x627 JUMPI PUSH2 0x627 PUSH2 0x1187 JUMP JUMPDEST PUSH1 0x20 ADD ADD SWAP1 PUSH1 0x1 PUSH1 0x1 PUSH1 0xF8 SHL SUB NOT AND SWAP1 DUP2 PUSH1 0x0 BYTE SWAP1 MSTORE8 POP PUSH1 0x0 PUSH2 0x64B DUP5 PUSH1 0x2 PUSH2 0x115D JUMP JUMPDEST PUSH2 0x656 SWAP1 PUSH1 0x1 PUSH2 0x1174 JUMP JUMPDEST SWAP1 POP JUMPDEST PUSH1 0x1 DUP2 GT ISZERO PUSH2 0x6CE JUMPI PUSH16 0x181899199A1A9B1B9C1CB0B131B232B3 PUSH1 0x81 SHL DUP6 PUSH1 0xF AND PUSH1 0x10 DUP2 LT PUSH2 0x68A JUMPI PUSH2 0x68A PUSH2 0x1187 JUMP JUMPDEST BYTE PUSH1 0xF8 SHL DUP3 DUP3 DUP2 MLOAD DUP2 LT PUSH2 0x6A0 JUMPI PUSH2 0x6A0 PUSH2 0x1187 JUMP JUMPDEST PUSH1 0x20 ADD ADD SWAP1 PUSH1 0x1 PUSH1 0x1 PUSH1 0xF8 SHL SUB NOT AND SWAP1 DUP2 PUSH1 0x0 BYTE SWAP1 MSTORE8 POP PUSH1 0x4 SWAP5 SWAP1 SWAP5 SHR SWAP4 PUSH2 0x6C7 DUP2 PUSH2 0x119D JUMP JUMPDEST SWAP1 POP PUSH2 0x659 JUMP JUMPDEST POP DUP4 ISZERO PUSH2 0x19B JUMPI PUSH1 0x40 MLOAD PUSH3 0x461BCD PUSH1 0xE5 SHL DUP2 MSTORE PUSH1 0x20 PUSH1 0x4 DUP3 ADD DUP2 SWAP1 MSTORE PUSH1 0x24 DUP3 ADD MSTORE PUSH32 0x537472696E67733A20686578206C656E67746820696E73756666696369656E74 PUSH1 0x44 DUP3 ADD MSTORE PUSH1 0x64 ADD PUSH1 0x40 MLOAD DUP1 SWAP2 SUB SWAP1 REVERT JUMPDEST PUSH1 0x60 DUP2 PUSH1 0x0 SUB PUSH2 0x748 JUMPI POP POP PUSH1 0x40 DUP1 MLOAD DUP1 DUP3 ADD SWAP1 SWAP2 MSTORE PUSH1 0x1 DUP2 MSTORE PUSH1 0x3 PUSH1 0xFC SHL PUSH1 0x20 DUP3 ADD MSTORE SWAP1 JUMP JUMPDEST DUP2 PUSH1 0x0 JUMPDEST DUP2 ISZERO PUSH2 0x772 JUMPI DUP1 PUSH2 0x75C DUP2 PUSH2 0x11B4 JUMP JUMPDEST SWAP2 POP PUSH2 0x76B SWAP1 POP PUSH1 0xA DUP4 PUSH2 0x11E3 JUMP JUMPDEST SWAP2 POP PUSH2 0x74C JUMP JUMPDEST PUSH1 0x0 DUP2 PUSH8 0xFFFFFFFFFFFFFFFF DUP2 GT ISZERO PUSH2 0x78D JUMPI PUSH2 0x78D PUSH2 0xCD8 JUMP JUMPDEST PUSH1 0x40 MLOAD SWAP1 DUP1 DUP3 MSTORE DUP1 PUSH1 0x1F ADD PUSH1 0x1F NOT AND PUSH1 0x20 ADD DUP3 ADD PUSH1 0x40 MSTORE DUP1 ISZERO PUSH2 0x7B7 JUMPI PUSH1 0x20 DUP3 ADD DUP2 DUP1 CALLDATASIZE DUP4 CALLDATACOPY ADD SWAP1 POP JUMPDEST POP SWAP1 POP JUMPDEST DUP5 ISZERO PUSH2 0x822 JUMPI PUSH2 0x7CC PUSH1 0x1 DUP4 PUSH2 0x11F7 JUMP JUMPDEST SWAP2 POP PUSH2 0x7D9 PUSH1 0xA DUP7 PUSH2 0x120A JUMP JUMPDEST PUSH2 0x7E4 SWAP1 PUSH1 0x30 PUSH2 0x1174 JUMP JUMPDEST PUSH1 0xF8 SHL DUP2 DUP4 DUP2 MLOAD DUP2 LT PUSH2 0x7F9 JUMPI PUSH2 0x7F9 PUSH2 0x1187 JUMP JUMPDEST PUSH1 0x20 ADD ADD SWAP1 PUSH1 0x1 PUSH1 0x1 PUSH1 0xF8 SHL SUB NOT AND SWAP1 DUP2 PUSH1 0x0 BYTE SWAP1 MSTORE8 POP PUSH2 0x81B PUSH1 0xA DUP7 PUSH2 0x11E3 JUMP JUMPDEST SWAP5 POP PUSH2 0x7BB JUMP JUMPDEST SWAP5 SWAP4 POP POP POP POP JUMP JUMPDEST PUSH1 0x40 DUP1 MLOAD DUP1 DUP3 ADD DUP3 MSTORE PUSH1 0x0 DUP1 DUP3 MSTORE PUSH1 0x20 SWAP2 DUP3 ADD MSTORE DUP2 MLOAD DUP1 DUP4 ADD SWAP1 SWAP3 MSTORE DUP3 MLOAD DUP3 MSTORE SWAP2 DUP3 ADD SWAP2 DUP2 ADD SWAP2 SWAP1 SWAP2 MSTORE SWAP1 JUMP JUMPDEST PUSH1 0x0 DUP1 PUSH1 0x1F DUP4 PUSH1 0x20 ADD MLOAD PUSH2 0x86B SWAP2 SWAP1 PUSH2 0x11F7 JUMP JUMPDEST DUP4 MLOAD SWAP1 SWAP2 POP PUSH1 0x0 SWAP1 PUSH2 0x87D SWAP1 DUP4 PUSH2 0x1174 JUMP JUMPDEST SWAP1 POP PUSH1 0x0 SWAP3 POP JUMPDEST DUP1 DUP3 LT ISZERO PUSH2 0x929 JUMPI DUP2 MLOAD PUSH1 0xFF AND PUSH1 0x80 DUP2 LT ISZERO PUSH2 0x8AC JUMPI PUSH2 0x8A5 PUSH1 0x1 DUP5 PUSH2 0x1174 JUMP JUMPDEST SWAP3 POP PUSH2 0x916 JUMP JUMPDEST PUSH1 0xE0 DUP2 PUSH1 0xFF AND LT ISZERO PUSH2 0x8C3 JUMPI PUSH2 0x8A5 PUSH1 0x2 DUP5 PUSH2 0x1174 JUMP JUMPDEST PUSH1 0xF0 DUP2 PUSH1 0xFF AND LT ISZERO PUSH2 0x8DA JUMPI PUSH2 0x8A5 PUSH1 0x3 DUP5 PUSH2 0x1174 JUMP JUMPDEST PUSH1 0xF8 DUP2 PUSH1 0xFF AND LT ISZERO PUSH2 0x8F1 JUMPI PUSH2 0x8A5 PUSH1 0x4 DUP5 PUSH2 0x1174 JUMP JUMPDEST PUSH1 0xFC DUP2 PUSH1 0xFF AND LT ISZERO PUSH2 0x908 JUMPI PUSH2 0x8A5 PUSH1 0x5 DUP5 PUSH2 0x1174 JUMP JUMPDEST PUSH2 0x913 PUSH1 0x6 DUP5 PUSH2 0x1174 JUMP JUMPDEST SWAP3 POP JUMPDEST POP DUP3 PUSH2 0x921 DUP2 PUSH2 0x11B4 JUMP JUMPDEST SWAP4 POP POP PUSH2 0x884 JUMP JUMPDEST POP POP SWAP2 SWAP1 POP JUMP JUMPDEST PUSH1 0x60 PUSH1 0x0 PUSH2 0x948 DUP5 PUSH1 0x40 MLOAD PUSH1 0x20 ADD PUSH2 0x48D SWAP2 SWAP1 PUSH2 0x121E JUMP JUMPDEST SWAP1 POP DUP1 PUSH1 0x40 MLOAD PUSH1 0x20 ADD PUSH2 0x95B SWAP2 SWAP1 PUSH2 0x14E1 JUMP JUMPDEST PUSH1 0x40 MLOAD PUSH1 0x20 DUP2 DUP4 SUB SUB DUP2 MSTORE SWAP1 PUSH1 0x40 MSTORE SWAP2 POP POP SWAP3 SWAP2 POP POP JUMP JUMPDEST PUSH1 0x60 DUP2 MLOAD PUSH1 0x0 SUB PUSH2 0x992 JUMPI POP POP PUSH1 0x40 DUP1 MLOAD PUSH1 0x20 DUP2 ADD SWAP1 SWAP2 MSTORE PUSH1 0x0 DUP2 MSTORE SWAP1 JUMP JUMPDEST PUSH1 0x0 PUSH1 0x40 MLOAD DUP1 PUSH1 0x60 ADD PUSH1 0x40 MSTORE DUP1 PUSH1 0x40 DUP2 MSTORE PUSH1 0x20 ADD PUSH2 0x1527 PUSH1 0x40 SWAP2 CODECOPY SWAP1 POP PUSH1 0x0 PUSH1 0x3 DUP5 MLOAD PUSH1 0x2 PUSH2 0x9C1 SWAP2 SWAP1 PUSH2 0x1174 JUMP JUMPDEST PUSH2 0x9CB SWAP2 SWAP1 PUSH2 0x11E3 JUMP JUMPDEST PUSH2 0x9D6 SWAP1 PUSH1 0x4 PUSH2 0x115D JUMP JUMPDEST SWAP1 POP PUSH1 0x0 PUSH2 0x9E5 DUP3 PUSH1 0x20 PUSH2 0x1174 JUMP JUMPDEST PUSH8 0xFFFFFFFFFFFFFFFF DUP2 GT ISZERO PUSH2 0x9FD JUMPI PUSH2 0x9FD PUSH2 0xCD8 JUMP JUMPDEST PUSH1 0x40 MLOAD SWAP1 DUP1 DUP3 MSTORE DUP1 PUSH1 0x1F ADD PUSH1 0x1F NOT AND PUSH1 0x20 ADD DUP3 ADD PUSH1 0x40 MSTORE DUP1 ISZERO PUSH2 0xA27 JUMPI PUSH1 0x20 DUP3 ADD DUP2 DUP1 CALLDATASIZE DUP4 CALLDATACOPY ADD SWAP1 POP JUMPDEST POP SWAP1 POP DUP2 DUP2 MSTORE PUSH1 0x1 DUP4 ADD DUP6 DUP7 MLOAD DUP2 ADD PUSH1 0x20 DUP5 ADD JUMPDEST DUP2 DUP4 LT ISZERO PUSH2 0xA95 JUMPI PUSH1 0x3 SWAP3 DUP4 ADD DUP1 MLOAD PUSH1 0x3F PUSH1 0x12 DUP3 SWAP1 SHR DUP2 AND DUP8 ADD MLOAD PUSH1 0xF8 SWAP1 DUP2 SHL DUP6 MSTORE PUSH1 0xC DUP4 SWAP1 SHR DUP3 AND DUP9 ADD MLOAD DUP2 SHL PUSH1 0x1 DUP7 ADD MSTORE PUSH1 0x6 DUP4 SWAP1 SHR DUP3 AND DUP9 ADD MLOAD DUP2 SHL PUSH1 0x2 DUP7 ADD MSTORE SWAP2 AND DUP7 ADD MLOAD SWAP1 SHL SWAP4 DUP3 ADD SWAP4 SWAP1 SWAP4 MSTORE PUSH1 0x4 ADD PUSH2 0xA3B JUMP JUMPDEST PUSH1 0x3 DUP10 MLOAD MOD PUSH1 0x1 DUP2 EQ PUSH2 0xAAF JUMPI PUSH1 0x2 DUP2 EQ PUSH2 0xAC0 JUMPI PUSH2 0xACC JUMP JUMPDEST PUSH2 0x3D3D PUSH1 0xF0 SHL PUSH1 0x1 NOT DUP4 ADD MSTORE PUSH2 0xACC JUMP JUMPDEST PUSH1 0x3D PUSH1 0xF8 SHL PUSH1 0x0 NOT DUP4 ADD MSTORE JUMPDEST POP SWAP4 SWAP9 SWAP8 POP POP POP POP POP POP POP POP JUMP JUMPDEST PUSH1 0x1 PUSH1 0x1 PUSH1 0xA0 SHL SUB DUP2 AND DUP2 EQ PUSH2 0xAEF JUMPI PUSH1 0x0 DUP1 REVERT JUMPDEST POP JUMP JUMPDEST PUSH1 0x0 PUSH1 0x20 DUP3 DUP5 SUB SLT ISZERO PUSH2 0xB04 JUMPI PUSH1 0x0 DUP1 REVERT JUMPDEST DUP2 CALLDATALOAD PUSH2 0x19B DUP2 PUSH2 0xADA JUMP JUMPDEST PUSH1 0x0 DUP1 DUP4 PUSH1 0x1F DUP5 ADD SLT PUSH2 0xB21 JUMPI PUSH1 0x0 DUP1 REVERT JUMPDEST POP DUP2 CALLDATALOAD PUSH8 0xFFFFFFFFFFFFFFFF DUP2 GT ISZERO PUSH2 0xB39 JUMPI PUSH1 0x0 DUP1 REVERT JUMPDEST PUSH1 0x20 DUP4 ADD SWAP2 POP DUP4 PUSH1 0x20 DUP3 DUP6 ADD ADD GT ISZERO PUSH2 0xB51 JUMPI PUSH1 0x0 DUP1 REVERT JUMPDEST SWAP3 POP SWAP3 SWAP1 POP JUMP JUMPDEST PUSH1 0x0 DUP1 PUSH1 0x0 PUSH1 0x40 DUP5 DUP7 SUB SLT ISZERO PUSH2 0xB6D JUMPI PUSH1 0x0 DUP1 REVERT JUMPDEST DUP4 CALLDATALOAD PUSH2 0xB78 DUP2 PUSH2 0xADA JUMP JUMPDEST SWAP3 POP PUSH1 0x20 DUP5 ADD CALLDATALOAD PUSH8 0xFFFFFFFFFFFFFFFF DUP2 GT ISZERO PUSH2 0xB94 JUMPI PUSH1 0x0 DUP1 REVERT JUMPDEST PUSH2 0xBA0 DUP7 DUP3 DUP8 ADD PUSH2 0xB0F JUMP JUMPDEST SWAP5 SWAP8 SWAP1 SWAP7 POP SWAP4 SWAP5 POP POP POP POP JUMP JUMPDEST PUSH1 0x0 JUMPDEST DUP4 DUP2 LT ISZERO PUSH2 0xBC8 JUMPI DUP2 DUP2 ADD MLOAD DUP4 DUP3 ADD MSTORE PUSH1 0x20 ADD PUSH2 0xBB0 JUMP JUMPDEST POP POP PUSH1 0x0 SWAP2 ADD MSTORE JUMP JUMPDEST PUSH1 0x20 DUP2 MSTORE PUSH1 0x0 DUP3 MLOAD DUP1 PUSH1 0x20 DUP5 ADD MSTORE PUSH2 0xBF0 DUP2 PUSH1 0x40 DUP6 ADD PUSH1 0x20 DUP8 ADD PUSH2 0xBAD JUMP JUMPDEST PUSH1 0x1F ADD PUSH1 0x1F NOT AND SWAP2 SWAP1 SWAP2 ADD PUSH1 0x40 ADD SWAP3 SWAP2 POP POP JUMP JUMPDEST PUSH1 0x0 DUP1 PUSH1 0x40 DUP4 DUP6 SUB SLT ISZERO PUSH2 0xC17 JUMPI PUSH1 0x0 DUP1 REVERT JUMPDEST DUP3 CALLDATALOAD PUSH2 0xC22 DUP2 PUSH2 0xADA JUMP JUMPDEST SWAP5 PUSH1 0x20 SWAP4 SWAP1 SWAP4 ADD CALLDATALOAD SWAP4 POP POP POP JUMP JUMPDEST PUSH1 0x0 DUP1 PUSH1 0x0 DUP1 PUSH1 0x0 DUP1 PUSH1 0x80 DUP8 DUP10 SUB SLT ISZERO PUSH2 0xC49 JUMPI PUSH1 0x0 DUP1 REVERT JUMPDEST DUP7 CALLDATALOAD PUSH2 0xC54 DUP2 PUSH2 0xADA JUMP JUMPDEST SWAP6 POP PUSH1 0x20 DUP8 ADD CALLDATALOAD PUSH8 0xFFFFFFFFFFFFFFFF DUP1 DUP3 GT ISZERO PUSH2 0xC71 JUMPI PUSH1 0x0 DUP1 REVERT JUMPDEST PUSH2 0xC7D DUP11 DUP4 DUP12 ADD PUSH2 0xB0F JUMP JUMPDEST SWAP1 SWAP8 POP SWAP6 POP PUSH1 0x40 DUP10 ADD CALLDATALOAD SWAP2 POP DUP1 DUP3 GT ISZERO PUSH2 0xC96 JUMPI PUSH1 0x0 DUP1 REVERT JUMPDEST POP PUSH2 0xCA3 DUP10 DUP3 DUP11 ADD PUSH2 0xB0F JUMP JUMPDEST SWAP8 SWAP11 SWAP7 SWAP10 POP SWAP5 SWAP8 SWAP5 SWAP7 SWAP6 PUSH1 0x60 SWAP1 SWAP6 ADD CALLDATALOAD SWAP5 SWAP4 POP POP POP POP JUMP JUMPDEST PUSH1 0x0 PUSH1 0x20 DUP3 DUP5 SUB SLT ISZERO PUSH2 0xCCD JUMPI PUSH1 0x0 DUP1 REVERT JUMPDEST DUP2 MLOAD PUSH2 0x19B DUP2 PUSH2 0xADA JUMP JUMPDEST PUSH4 0x4E487B71 PUSH1 0xE0 SHL PUSH1 0x0 MSTORE PUSH1 0x41 PUSH1 0x4 MSTORE PUSH1 0x24 PUSH1 0x0 REVERT JUMPDEST PUSH1 0x1 DUP2 DUP2 SHR SWAP1 DUP3 AND DUP1 PUSH2 0xD02 JUMPI PUSH1 0x7F DUP3 AND SWAP2 POP JUMPDEST PUSH1 0x20 DUP3 LT DUP2 SUB PUSH2 0xD22 JUMPI PUSH4 0x4E487B71 PUSH1 0xE0 SHL PUSH1 0x0 MSTORE PUSH1 0x22 PUSH1 0x4 MSTORE PUSH1 0x24 PUSH1 0x0 REVERT JUMPDEST POP SWAP2 SWAP1 POP JUMP JUMPDEST PUSH1 0x1F DUP3 GT ISZERO PUSH2 0xD74 JUMPI PUSH1 0x0 DUP2 PUSH1 0x0 MSTORE PUSH1 0x20 PUSH1 0x0 KECCAK256 PUSH1 0x1F DUP6 ADD PUSH1 0x5 SHR DUP2 ADD PUSH1 0x20 DUP7 LT ISZERO PUSH2 0xD51 JUMPI POP DUP1 JUMPDEST PUSH1 0x1F DUP6 ADD PUSH1 0x5 SHR DUP3 ADD SWAP2 POP JUMPDEST DUP2 DUP2 LT ISZERO PUSH2 0xD70 JUMPI DUP3 DUP2 SSTORE PUSH1 0x1 ADD PUSH2 0xD5D JUMP JUMPDEST POP POP POP JUMPDEST POP POP POP JUMP JUMPDEST PUSH8 0xFFFFFFFFFFFFFFFF DUP4 GT ISZERO PUSH2 0xD91 JUMPI PUSH2 0xD91 PUSH2 0xCD8 JUMP JUMPDEST PUSH2 0xDA5 DUP4 PUSH2 0xD9F DUP4 SLOAD PUSH2 0xCEE JUMP JUMPDEST DUP4 PUSH2 0xD28 JUMP JUMPDEST PUSH1 0x0 PUSH1 0x1F DUP5 GT PUSH1 0x1 DUP2 EQ PUSH2 0xDD9 JUMPI PUSH1 0x0 DUP6 ISZERO PUSH2 0xDC1 JUMPI POP DUP4 DUP3 ADD CALLDATALOAD JUMPDEST PUSH1 0x0 NOT PUSH1 0x3 DUP8 SWAP1 SHL SHR NOT AND PUSH1 0x1 DUP7 SWAP1 SHL OR DUP4 SSTORE PUSH2 0xE33 JUMP JUMPDEST PUSH1 0x0 DUP4 DUP2 MSTORE PUSH1 0x20 SWAP1 KECCAK256 PUSH1 0x1F NOT DUP7 AND SWAP1 DUP4 JUMPDEST DUP3 DUP2 LT ISZERO PUSH2 0xE0A JUMPI DUP7 DUP6 ADD CALLDATALOAD DUP3 SSTORE PUSH1 0x20 SWAP5 DUP6 ADD SWAP5 PUSH1 0x1 SWAP1 SWAP3 ADD SWAP2 ADD PUSH2 0xDEA JUMP JUMPDEST POP DUP7 DUP3 LT ISZERO PUSH2 0xE27 JUMPI PUSH1 0x0 NOT PUSH1 0xF8 DUP9 PUSH1 0x3 SHL AND SHR NOT DUP5 DUP8 ADD CALLDATALOAD AND DUP2 SSTORE JUMPDEST POP POP PUSH1 0x1 DUP6 PUSH1 0x1 SHL ADD DUP4 SSTORE JUMPDEST POP POP POP POP POP JUMP JUMPDEST PUSH1 0x20 DUP2 MSTORE DUP2 PUSH1 0x20 DUP3 ADD MSTORE DUP2 DUP4 PUSH1 0x40 DUP4 ADD CALLDATACOPY PUSH1 0x0 DUP2 DUP4 ADD PUSH1 0x40 SWAP1 DUP2 ADD SWAP2 SWAP1 SWAP2 MSTORE PUSH1 0x1F SWAP1 SWAP3 ADD PUSH1 0x1F NOT AND ADD ADD SWAP2 SWAP1 POP JUMP JUMPDEST PUSH1 0x0 DUP2 MLOAD PUSH2 0xE7B DUP2 DUP6 PUSH1 0x20 DUP7 ADD PUSH2 0xBAD JUMP JUMPDEST SWAP3 SWAP1 SWAP3 ADD SWAP3 SWAP2 POP POP JUMP JUMPDEST PUSH32 0x68747470733A2F2F696672616D652D746F6B656E626F756E642E76657263656C DUP2 MSTORE PUSH5 0x2E6170702F PUSH1 0xD8 SHL PUSH1 0x20 DUP3 ADD MSTORE PUSH1 0x0 DUP5 MLOAD PUSH2 0xECB DUP2 PUSH1 0x25 DUP6 ADD PUSH1 0x20 DUP10 ADD PUSH2 0xBAD JUMP JUMPDEST DUP1 DUP4 ADD SWAP1 POP PUSH1 0x2F PUSH1 0xF8 SHL DUP1 PUSH1 0x25 DUP4 ADD MSTORE DUP6 MLOAD PUSH2 0xEEE DUP2 PUSH1 0x26 DUP6 ADD PUSH1 0x20 DUP11 ADD PUSH2 0xBAD JUMP JUMPDEST PUSH1 0x26 SWAP3 ADD SWAP2 DUP3 ADD MSTORE DUP4 MLOAD PUSH2 0xF09 DUP2 PUSH1 0x27 DUP5 ADD PUSH1 0x20 DUP9 ADD PUSH2 0xBAD JUMP JUMPDEST ADD PUSH1 0x27 ADD SWAP6 SWAP5 POP POP POP POP POP JUMP JUMPDEST DUP4 DUP6 DUP3 CALLDATACOPY PUSH1 0x0 DUP5 DUP3 ADD PUSH1 0x0 DUP2 MSTORE DUP4 DUP6 DUP3 CALLDATACOPY PUSH1 0x0 SWAP4 ADD SWAP3 DUP4 MSTORE POP SWAP1 SWAP5 SWAP4 POP POP POP POP JUMP JUMPDEST PUSH10 0x3D913730B6B2911D1011 PUSH1 0xB1 SHL DUP2 MSTORE DUP6 MLOAD PUSH1 0x0 SWAP1 PUSH2 0xF5E DUP2 PUSH1 0xA DUP6 ADD PUSH1 0x20 DUP12 ADD PUSH2 0xBAD JUMP JUMPDEST PUSH3 0x11161 PUSH1 0xED SHL PUSH1 0xA SWAP2 DUP5 ADD SWAP2 DUP3 ADD MSTORE PUSH16 0x113232B9B1B934B83A34B7B7111D1011 PUSH1 0x81 SHL PUSH1 0xD DUP3 ADD MSTORE DUP7 SLOAD PUSH1 0x0 SWAP1 PUSH2 0xF95 DUP2 PUSH2 0xCEE JUMP JUMPDEST PUSH1 0x1 DUP3 DUP2 AND DUP1 ISZERO PUSH2 0xFAD JUMPI PUSH1 0x1 DUP2 EQ PUSH2 0xFC8 JUMPI PUSH2 0xFFC JUMP JUMPDEST PUSH1 0xFF NOT DUP5 AND PUSH1 0x1D DUP8 ADD MSTORE PUSH1 0x1D DUP4 ISZERO ISZERO DUP5 MUL DUP8 ADD ADD SWAP5 POP PUSH2 0xFFC JUMP JUMPDEST DUP12 PUSH1 0x0 MSTORE PUSH1 0x20 PUSH1 0x0 KECCAK256 PUSH1 0x0 JUMPDEST DUP5 DUP2 LT ISZERO PUSH2 0xFF1 JUMPI DUP2 SLOAD DUP9 DUP3 ADD PUSH1 0x1D ADD MSTORE SWAP1 DUP4 ADD SWAP1 PUSH1 0x20 ADD PUSH2 0xFD4 JUMP JUMPDEST POP POP PUSH1 0x1D DUP4 DUP8 ADD ADD SWAP5 POP JUMPDEST POP POP POP POP PUSH2 0x10F5 PUSH2 0x10E7 PUSH2 0x10E1 PUSH2 0x10CB PUSH2 0x10BC PUSH2 0x10B6 PUSH2 0x1098 PUSH2 0x1087 PUSH2 0x1081 PUSH2 0x104C PUSH2 0x1031 DUP12 PUSH3 0x11161 PUSH1 0xED SHL DUP2 MSTORE PUSH1 0x3 ADD SWAP1 JUMP JUMPDEST PUSH15 0x2261747472696275746573223A205B PUSH1 0x88 SHL DUP2 MSTORE PUSH1 0xF ADD SWAP1 JUMP JUMPDEST PUSH32 0x7B2274726169745F74797065223A20226C656E677468222C202276616C756522 DUP2 MSTORE PUSH3 0x1D1011 PUSH1 0xE9 SHL PUSH1 0x20 DUP3 ADD MSTORE PUSH1 0x23 ADD SWAP1 JUMP JUMPDEST DUP16 PUSH2 0xE69 JUMP JUMPDEST PUSH5 0x113EAE961 PUSH1 0xDD SHL DUP2 MSTORE PUSH1 0x5 ADD SWAP1 JUMP JUMPDEST PUSH18 0x1130B734B6B0BA34B7B72FBAB936111D1011 PUSH1 0x71 SHL DUP2 MSTORE PUSH1 0x12 ADD SWAP1 JUMP JUMPDEST DUP12 PUSH2 0xE69 JUMP JUMPDEST PUSH3 0x11161 PUSH1 0xED SHL DUP2 MSTORE PUSH1 0x3 ADD SWAP1 JUMP JUMPDEST PUSH10 0x1134B6B0B3B2911D1011 PUSH1 0xB1 SHL DUP2 MSTORE PUSH1 0xA ADD SWAP1 JUMP JUMPDEST DUP8 PUSH2 0xE69 JUMP JUMPDEST PUSH2 0x227D PUSH1 0xF0 SHL DUP2 MSTORE PUSH1 0x2 ADD SWAP1 JUMP JUMPDEST SWAP10 SWAP9 POP POP POP POP POP POP POP POP POP JUMP JUMPDEST PUSH32 0x646174613A6170706C69636174696F6E2F6A736F6E3B6261736536342C000000 DUP2 MSTORE PUSH1 0x0 DUP3 MLOAD PUSH2 0x113A DUP2 PUSH1 0x1D DUP6 ADD PUSH1 0x20 DUP8 ADD PUSH2 0xBAD JUMP JUMPDEST SWAP2 SWAP1 SWAP2 ADD PUSH1 0x1D ADD SWAP3 SWAP2 POP POP JUMP JUMPDEST PUSH4 0x4E487B71 PUSH1 0xE0 SHL PUSH1 0x0 MSTORE PUSH1 0x11 PUSH1 0x4 MSTORE PUSH1 0x24 PUSH1 0x0 REVERT JUMPDEST DUP1 DUP3 MUL DUP2 ISZERO DUP3 DUP3 DIV DUP5 EQ OR PUSH2 0x32E JUMPI PUSH2 0x32E PUSH2 0x1147 JUMP JUMPDEST DUP1 DUP3 ADD DUP1 DUP3 GT ISZERO PUSH2 0x32E JUMPI PUSH2 0x32E PUSH2 0x1147 JUMP JUMPDEST PUSH4 0x4E487B71 PUSH1 0xE0 SHL PUSH1 0x0 MSTORE PUSH1 0x32 PUSH1 0x4 MSTORE PUSH1 0x24 PUSH1 0x0 REVERT JUMPDEST PUSH1 0x0 DUP2 PUSH2 0x11AC JUMPI PUSH2 0x11AC PUSH2 0x1147 JUMP JUMPDEST POP PUSH1 0x0 NOT ADD SWAP1 JUMP JUMPDEST PUSH1 0x0 PUSH1 0x1 DUP3 ADD PUSH2 0x11C6 JUMPI PUSH2 0x11C6 PUSH2 0x1147 JUMP JUMPDEST POP PUSH1 0x1 ADD SWAP1 JUMP JUMPDEST PUSH4 0x4E487B71 PUSH1 0xE0 SHL PUSH1 0x0 MSTORE PUSH1 0x12 PUSH1 0x4 MSTORE PUSH1 0x24 PUSH1 0x0 REVERT JUMPDEST PUSH1 0x0 DUP3 PUSH2 0x11F2 JUMPI PUSH2 0x11F2 PUSH2 0x11CD JUMP JUMPDEST POP DIV SWAP1 JUMP JUMPDEST DUP2 DUP2 SUB DUP2 DUP2 GT ISZERO PUSH2 0x32E JUMPI PUSH2 0x32E PUSH2 0x1147 JUMP JUMPDEST PUSH1 0x0 DUP3 PUSH2 0x1219 JUMPI PUSH2 0x1219 PUSH2 0x11CD JUMP JUMPDEST POP MOD SWAP1 JUMP JUMPDEST PUSH32 0x3C73766720786D6C6E733D22687474703A2F2F7777772E77332E6F72672F3230 DUP2 MSTORE PUSH32 0x30302F737667222076696577426F783D22302030203530302035303022207769 PUSH1 0x20 DUP3 ADD MSTORE PUSH32 0x6474683D2235303022206865696768743D22353030223E000000000000000000 PUSH1 0x40 DUP3 ADD MSTORE PUSH32 0x3C646566733E3C6C696E6561724772616469656E742069643D22677261642220 PUSH1 0x57 DUP3 ADD MSTORE PUSH32 0x78313D223025222079313D223025222078323D2231303025222079323D223025 PUSH1 0x77 DUP3 ADD MSTORE PUSH2 0x111F PUSH1 0xF1 SHL PUSH1 0x97 DUP3 ADD MSTORE PUSH32 0x3C73746F70206F66667365743D22302522207374796C653D2273746F702D636F PUSH1 0x99 DUP3 ADD MSTORE PUSH32 0x6C6F723A626C61636B3B73746F702D6F7061636974793A3122202F3E00000000 PUSH1 0xB9 DUP3 ADD MSTORE PUSH32 0x3C73746F70206F66667365743D223130302522207374796C653D2273746F702D PUSH1 0xD5 DUP3 ADD MSTORE PUSH32 0x636F6C6F723A7267622834332C2034332C203433293B73746F702D6F70616369 PUSH1 0xF5 DUP3 ADD MSTORE PUSH32 0x74793A3122202F3E3C2F6C696E6561724772616469656E743E3C2F646566733E PUSH2 0x115 DUP3 ADD MSTORE PUSH32 0x3C7265637420783D22302220793D2230222077696474683D2235303022206865 PUSH2 0x135 DUP3 ADD MSTORE PUSH32 0x696768743D22353030222066696C6C3D2275726C28236772616429222F3E0000 PUSH2 0x155 DUP3 ADD MSTORE PUSH32 0x3C7465787420783D223530252220793D223530252220646F6D696E616E742D62 PUSH2 0x173 DUP3 ADD MSTORE PUSH32 0x6173656C696E653D226D6964646C65222066696C6C3D22776869746522207465 PUSH2 0x193 DUP3 ADD MSTORE PUSH32 0x78742D616E63686F723D226D6964646C652220666F6E742D66616D696C793D22 PUSH2 0x1B3 DUP3 ADD MSTORE PUSH32 0x6D6F6E6F73706163652220666F6E742D73697A653D22323470782220666F6E74 PUSH2 0x1D3 DUP3 ADD MSTORE PUSH15 0x16BBB2B4B3B43A1E913137B632111F PUSH1 0x89 SHL PUSH2 0x1F3 DUP3 ADD MSTORE PUSH1 0x0 PUSH2 0x19B PUSH2 0x14CF PUSH2 0x14BC PUSH2 0x202 DUP6 ADD DUP7 PUSH2 0xE69 JUMP JUMPDEST PUSH7 0x1E17BA32BC3A1F PUSH1 0xC9 SHL DUP2 MSTORE PUSH1 0x7 ADD SWAP1 JUMP JUMPDEST PUSH6 0x1E17B9BB339F PUSH1 0xD1 SHL DUP2 MSTORE PUSH1 0x6 ADD SWAP1 JUMP JUMPDEST PUSH32 0x646174613A696D6167652F7376672B786D6C3B6261736536342C000000000000 DUP2 MSTORE PUSH1 0x0 DUP3 MLOAD PUSH2 0x1519 DUP2 PUSH1 0x1A DUP6 ADD PUSH1 0x20 DUP8 ADD PUSH2 0xBAD JUMP JUMPDEST SWAP2 SWAP1 SWAP2 ADD PUSH1 0x1A ADD SWAP3 SWAP2 POP POP JUMP INVALID COINBASE TIMESTAMP NUMBER PREVRANDAO GASLIMIT CHAINID SELFBALANCE BASEFEE BLOBHASH BLOBBASEFEE 0x4B 0x4C 0x4D 0x4E 0x4F POP MLOAD MSTORE MSTORE8 SLOAD SSTORE JUMP JUMPI PC MSIZE GAS PUSH2 0x6263 PUSH5 0x6566676869 PUSH11 0x6B6C6D6E6F707172737475 PUSH23 0x7778797A303132333435363738392B2FA2646970667358 0x22 SLT KECCAK256 0xCD PUSH9 0x9ECBF5F5786189BB51 MULMOD SWAP14 SELFDESTRUCT DIV LOG4 CODECOPY 0xEE SWAP2 BLOCKHASH 0xF9 0xC2 0xEC LOG0 DUP14 0x4F 0xD8 0xE7 PUSH10 0x29A18964736F6C634300 ADDMOD XOR STOP CALLER "
        },
        "methodIdentifiers": {
          "brands(address)": "5b7fd9b5",
          "changeBrand(address,string)": "a4002a05",
          "changeDescription(address,string)": "1ed6f423",
          "descriptions(address)": "a330a71d",
          "getAnimationUrl(address,uint256)": "6d4a238c",
          "getMetadata(address,string,string,uint256)": "89cff984",
          "getTldOwner(address)": "0ddec7cc"
        }
      }
    }
  }
}